{
	"contracts/Escrow.sol": {
		"Escrow": {
			"abi": [
				{
					"inputs": [],
					"stateMutability": "nonpayable",
					"type": "constructor"
				},
				{
					"inputs": [],
					"name": "Buyer",
					"outputs": [
						{
							"internalType": "address payable",
							"name": "",
							"type": "address"
						}
					],
					"stateMutability": "view",
					"type": "function"
				},
				{
					"inputs": [],
					"name": "Seller",
					"outputs": [
						{
							"internalType": "address payable",
							"name": "",
							"type": "address"
						}
					],
					"stateMutability": "view",
					"type": "function"
				},
				{
					"inputs": [],
					"name": "amount",
					"outputs": [
						{
							"internalType": "uint256",
							"name": "",
							"type": "uint256"
						}
					],
					"stateMutability": "view",
					"type": "function"
				},
				{
					"inputs": [],
					"name": "approveByBuyer",
					"outputs": [],
					"stateMutability": "nonpayable",
					"type": "function"
				},
				{
					"inputs": [],
					"name": "approveBySeller",
					"outputs": [],
					"stateMutability": "nonpayable",
					"type": "function"
				},
				{
					"inputs": [],
					"name": "arbiter",
					"outputs": [
						{
							"internalType": "address",
							"name": "",
							"type": "address"
						}
					],
					"stateMutability": "view",
					"type": "function"
				},
				{
					"inputs": [],
					"name": "buyerApproved",
					"outputs": [
						{
							"internalType": "bool",
							"name": "",
							"type": "bool"
						}
					],
					"stateMutability": "view",
					"type": "function"
				},
				{
					"inputs": [],
					"name": "dispute",
					"outputs": [],
					"stateMutability": "nonpayable",
					"type": "function"
				},
				{
					"inputs": [],
					"name": "getBalance",
					"outputs": [
						{
							"internalType": "uint256",
							"name": "",
							"type": "uint256"
						}
					],
					"stateMutability": "view",
					"type": "function"
				},
				{
					"inputs": [
						{
							"internalType": "address payable",
							"name": "_buyer",
							"type": "address"
						},
						{
							"internalType": "address payable",
							"name": "_seller",
							"type": "address"
						},
						{
							"internalType": "address",
							"name": "_arbiter",
							"type": "address"
						}
					],
					"name": "initiaize",
					"outputs": [],
					"stateMutability": "payable",
					"type": "function"
				},
				{
					"inputs": [],
					"name": "owner",
					"outputs": [
						{
							"internalType": "address",
							"name": "",
							"type": "address"
						}
					],
					"stateMutability": "view",
					"type": "function"
				},
				{
					"inputs": [],
					"name": "releaseToBuyer",
					"outputs": [],
					"stateMutability": "nonpayable",
					"type": "function"
				},
				{
					"inputs": [],
					"name": "releaseToSeller",
					"outputs": [],
					"stateMutability": "nonpayable",
					"type": "function"
				},
				{
					"inputs": [],
					"name": "reset",
					"outputs": [],
					"stateMutability": "nonpayable",
					"type": "function"
				},
				{
					"inputs": [],
					"name": "sellerApproved",
					"outputs": [
						{
							"internalType": "bool",
							"name": "",
							"type": "bool"
						}
					],
					"stateMutability": "view",
					"type": "function"
				}
			],
			"devdoc": {
				"kind": "dev",
				"methods": {},
				"version": 1
			},
			"evm": {
				"assembly": "    /* \"contracts/Escrow.sol\":63:1361  contract Escrow {... */\n  mstore(0x40, 0x80)\n    /* \"contracts/Escrow.sol\":308:359  constructor() {... */\n  callvalue\n  dup1\n  iszero\n  tag_1\n  jumpi\n  0x00\n  dup1\n  revert\ntag_1:\n  pop\n    /* \"contracts/Escrow.sol\":341:351  msg.sender */\n  caller\n    /* \"contracts/Escrow.sol\":333:338  owner */\n  0x04\n  0x02\n    /* \"contracts/Escrow.sol\":333:351  owner = msg.sender */\n  0x0100\n  exp\n  dup2\n  sload\n  dup2\n  0xffffffffffffffffffffffffffffffffffffffff\n  mul\n  not\n  and\n  swap1\n  dup4\n  0xffffffffffffffffffffffffffffffffffffffff\n  and\n  mul\n  or\n  swap1\n  sstore\n  pop\n    /* \"contracts/Escrow.sol\":63:1361  contract Escrow {... */\n  dataSize(sub_0)\n  dup1\n  dataOffset(sub_0)\n  0x00\n  codecopy\n  0x00\n  return\nstop\n\nsub_0: assembly {\n        /* \"contracts/Escrow.sol\":63:1361  contract Escrow {... */\n      mstore(0x40, 0x80)\n      jumpi(tag_1, lt(calldatasize, 0x04))\n      shr(0xe0, calldataload(0x00))\n      dup1\n      0x99f5c369\n      gt\n      tag_17\n      jumpi\n      dup1\n      0xf240f7c3\n      gt\n      tag_18\n      jumpi\n      dup1\n      0xf240f7c3\n      eq\n      tag_13\n      jumpi\n      dup1\n      0xfdc5bf2c\n      eq\n      tag_14\n      jumpi\n      dup1\n      0xfe25e00a\n      eq\n      tag_15\n      jumpi\n      dup1\n      0xff80a389\n      eq\n      tag_16\n      jumpi\n      jump(tag_1)\n    tag_18:\n      dup1\n      0x99f5c369\n      eq\n      tag_9\n      jumpi\n      dup1\n      0xa1c12e6b\n      eq\n      tag_10\n      jumpi\n      dup1\n      0xaa8c217c\n      eq\n      tag_11\n      jumpi\n      dup1\n      0xd826f88f\n      eq\n      tag_12\n      jumpi\n      jump(tag_1)\n    tag_17:\n      dup1\n      0x220ef69f\n      gt\n      tag_19\n      jumpi\n      dup1\n      0x220ef69f\n      eq\n      tag_5\n      jumpi\n      dup1\n      0x6cc332ce\n      eq\n      tag_6\n      jumpi\n      dup1\n      0x892a0e42\n      eq\n      tag_7\n      jumpi\n      dup1\n      0x8da5cb5b\n      eq\n      tag_8\n      jumpi\n      jump(tag_1)\n    tag_19:\n      dup1\n      0x02c3ae46\n      eq\n      tag_2\n      jumpi\n      dup1\n      0x07fd3687\n      eq\n      tag_3\n      jumpi\n      dup1\n      0x12065fe0\n      eq\n      tag_4\n      jumpi\n    tag_1:\n      0x00\n      dup1\n      revert\n        /* \"contracts/Escrow.sol\":367:883  function initiaize(... */\n    tag_2:\n      tag_20\n      0x04\n      dup1\n      calldatasize\n      sub\n      dup2\n      add\n      swap1\n      tag_21\n      swap2\n      swap1\n      tag_22\n      jump\t// in\n    tag_21:\n      tag_23\n      jump\t// in\n    tag_20:\n      stop\n        /* \"contracts/Escrow.sol\":121:150  address payable public Seller */\n    tag_3:\n      callvalue\n      dup1\n      iszero\n      tag_24\n      jumpi\n      0x00\n      dup1\n      revert\n    tag_24:\n      pop\n      tag_25\n      tag_26\n      jump\t// in\n    tag_25:\n      mload(0x40)\n      tag_27\n      swap2\n      swap1\n      tag_28\n      jump\t// in\n    tag_27:\n      mload(0x40)\n      dup1\n      swap2\n      sub\n      swap1\n      return\n        /* \"contracts/Escrow.sol\":1270:1324  function getBalance() public view returns (uint256) {} */\n    tag_4:\n      callvalue\n      dup1\n      iszero\n      tag_29\n      jumpi\n      0x00\n      dup1\n      revert\n    tag_29:\n      pop\n      tag_30\n      tag_31\n      jump\t// in\n    tag_30:\n      mload(0x40)\n      tag_32\n      swap2\n      swap1\n      tag_33\n      jump\t// in\n    tag_32:\n      mload(0x40)\n      dup1\n      swap2\n      sub\n      swap1\n      return\n        /* \"contracts/Escrow.sol\":246:272  bool public sellerApproved */\n    tag_5:\n      callvalue\n      dup1\n      iszero\n      tag_34\n      jumpi\n      0x00\n      dup1\n      revert\n    tag_34:\n      pop\n      tag_35\n      tag_36\n      jump\t// in\n    tag_35:\n      mload(0x40)\n      tag_37\n      swap2\n      swap1\n      tag_38\n      jump\t// in\n    tag_37:\n      mload(0x40)\n      dup1\n      swap2\n      sub\n      swap1\n      return\n        /* \"contracts/Escrow.sol\":1103:1139  function approveBySeller() public {} */\n    tag_6:\n      callvalue\n      dup1\n      iszero\n      tag_39\n      jumpi\n      0x00\n      dup1\n      revert\n    tag_39:\n      pop\n      tag_40\n      tag_41\n      jump\t// in\n    tag_40:\n      stop\n        /* \"contracts/Escrow.sol\":1190:1226  function releaseToSeller() public {} */\n    tag_7:\n      callvalue\n      dup1\n      iszero\n      tag_42\n      jumpi\n      0x00\n      dup1\n      revert\n    tag_42:\n      pop\n      tag_43\n      tag_44\n      jump\t// in\n    tag_43:\n      stop\n        /* \"contracts/Escrow.sol\":279:299  address public owner */\n    tag_8:\n      callvalue\n      dup1\n      iszero\n      tag_45\n      jumpi\n      0x00\n      dup1\n      revert\n    tag_45:\n      pop\n      tag_46\n      tag_47\n      jump\t// in\n    tag_46:\n      mload(0x40)\n      tag_48\n      swap2\n      swap1\n      tag_49\n      jump\t// in\n    tag_48:\n      mload(0x40)\n      dup1\n      swap2\n      sub\n      swap1\n      return\n        /* \"contracts/Escrow.sol\":214:239  bool public buyerApproved */\n    tag_9:\n      callvalue\n      dup1\n      iszero\n      tag_50\n      jumpi\n      0x00\n      dup1\n      revert\n    tag_50:\n      pop\n      tag_51\n      tag_52\n      jump\t// in\n    tag_51:\n      mload(0x40)\n      tag_53\n      swap2\n      swap1\n      tag_38\n      jump\t// in\n    tag_53:\n      mload(0x40)\n      dup1\n      swap2\n      sub\n      swap1\n      return\n        /* \"contracts/Escrow.sol\":86:114  address payable public Buyer */\n    tag_10:\n      callvalue\n      dup1\n      iszero\n      tag_54\n      jumpi\n      0x00\n      dup1\n      revert\n    tag_54:\n      pop\n      tag_55\n      tag_56\n      jump\t// in\n    tag_55:\n      mload(0x40)\n      tag_57\n      swap2\n      swap1\n      tag_28\n      jump\t// in\n    tag_57:\n      mload(0x40)\n      dup1\n      swap2\n      sub\n      swap1\n      return\n        /* \"contracts/Escrow.sol\":186:207  uint256 public amount */\n    tag_11:\n      callvalue\n      dup1\n      iszero\n      tag_58\n      jumpi\n      0x00\n      dup1\n      revert\n    tag_58:\n      pop\n      tag_59\n      tag_60\n      jump\t// in\n    tag_59:\n      mload(0x40)\n      tag_61\n      swap2\n      swap1\n      tag_33\n      jump\t// in\n    tag_61:\n      mload(0x40)\n      dup1\n      swap2\n      sub\n      swap1\n      return\n        /* \"contracts/Escrow.sol\":1332:1358  function reset() public {} */\n    tag_12:\n      callvalue\n      dup1\n      iszero\n      tag_62\n      jumpi\n      0x00\n      dup1\n      revert\n    tag_62:\n      pop\n      tag_63\n      tag_64\n      jump\t// in\n    tag_63:\n      stop\n        /* \"contracts/Escrow.sol\":1234:1262  function dispute() public {} */\n    tag_13:\n      callvalue\n      dup1\n      iszero\n      tag_65\n      jumpi\n      0x00\n      dup1\n      revert\n    tag_65:\n      pop\n      tag_66\n      tag_67\n      jump\t// in\n    tag_66:\n      stop\n        /* \"contracts/Escrow.sol\":1147:1182  function releaseToBuyer() public {} */\n    tag_14:\n      callvalue\n      dup1\n      iszero\n      tag_68\n      jumpi\n      0x00\n      dup1\n      revert\n    tag_68:\n      pop\n      tag_69\n      tag_70\n      jump\t// in\n    tag_69:\n      stop\n        /* \"contracts/Escrow.sol\":157:179  address public arbiter */\n    tag_15:\n      callvalue\n      dup1\n      iszero\n      tag_71\n      jumpi\n      0x00\n      dup1\n      revert\n    tag_71:\n      pop\n      tag_72\n      tag_73\n      jump\t// in\n    tag_72:\n      mload(0x40)\n      tag_74\n      swap2\n      swap1\n      tag_49\n      jump\t// in\n    tag_74:\n      mload(0x40)\n      dup1\n      swap2\n      sub\n      swap1\n      return\n        /* \"contracts/Escrow.sol\":891:1095  function approveByBuyer() public {... */\n    tag_16:\n      callvalue\n      dup1\n      iszero\n      tag_75\n      jumpi\n      0x00\n      dup1\n      revert\n    tag_75:\n      pop\n      tag_76\n      tag_77\n      jump\t// in\n    tag_76:\n      stop\n        /* \"contracts/Escrow.sol\":367:883  function initiaize(... */\n    tag_23:\n        /* \"contracts/Escrow.sol\":530:540  msg.sender */\n      caller\n        /* \"contracts/Escrow.sol\":521:540  owner == msg.sender */\n      0xffffffffffffffffffffffffffffffffffffffff\n      and\n        /* \"contracts/Escrow.sol\":521:526  owner */\n      0x04\n      0x02\n      swap1\n      sload\n      swap1\n      0x0100\n      exp\n      swap1\n      div\n      0xffffffffffffffffffffffffffffffffffffffff\n      and\n        /* \"contracts/Escrow.sol\":521:540  owner == msg.sender */\n      0xffffffffffffffffffffffffffffffffffffffff\n      and\n      eq\n        /* \"contracts/Escrow.sol\":513:570  require(owner == msg.sender, \"only owner can initialize\") */\n      tag_79\n      jumpi\n      mload(0x40)\n      0x08c379a000000000000000000000000000000000000000000000000000000000\n      dup2\n      mstore\n      0x04\n      add\n      tag_80\n      swap1\n      tag_81\n      jump\t// in\n    tag_80:\n      mload(0x40)\n      dup1\n      swap2\n      sub\n      swap1\n      revert\n    tag_79:\n        /* \"contracts/Escrow.sol\":599:606  _seller */\n      dup2\n        /* \"contracts/Escrow.sol\":589:606  _buyer != _seller */\n      0xffffffffffffffffffffffffffffffffffffffff\n      and\n        /* \"contracts/Escrow.sol\":589:595  _buyer */\n      dup4\n        /* \"contracts/Escrow.sol\":589:606  _buyer != _seller */\n      0xffffffffffffffffffffffffffffffffffffffff\n      and\n      eq\n      iszero\n        /* \"contracts/Escrow.sol\":589:628  _buyer != _seller && _buyer != _arbiter */\n      dup1\n      iszero\n      tag_82\n      jumpi\n      pop\n        /* \"contracts/Escrow.sol\":620:628  _arbiter */\n      dup1\n        /* \"contracts/Escrow.sol\":610:628  _buyer != _arbiter */\n      0xffffffffffffffffffffffffffffffffffffffff\n      and\n        /* \"contracts/Escrow.sol\":610:616  _buyer */\n      dup4\n        /* \"contracts/Escrow.sol\":610:628  _buyer != _arbiter */\n      0xffffffffffffffffffffffffffffffffffffffff\n      and\n      eq\n      iszero\n        /* \"contracts/Escrow.sol\":589:628  _buyer != _seller && _buyer != _arbiter */\n    tag_82:\n        /* \"contracts/Escrow.sol\":589:651  _buyer != _seller && _buyer != _arbiter && _seller != _arbiter */\n      dup1\n      iszero\n      tag_83\n      jumpi\n      pop\n        /* \"contracts/Escrow.sol\":643:651  _arbiter */\n      dup1\n        /* \"contracts/Escrow.sol\":632:651  _seller != _arbiter */\n      0xffffffffffffffffffffffffffffffffffffffff\n      and\n        /* \"contracts/Escrow.sol\":632:639  _seller */\n      dup3\n        /* \"contracts/Escrow.sol\":632:651  _seller != _arbiter */\n      0xffffffffffffffffffffffffffffffffffffffff\n      and\n      eq\n      iszero\n        /* \"contracts/Escrow.sol\":589:651  _buyer != _seller && _buyer != _arbiter && _seller != _arbiter */\n    tag_83:\n        /* \"contracts/Escrow.sol\":581:702  require(_buyer != _seller && _buyer != _arbiter && _seller != _arbiter, \"Buyer, seller and arbiter can not be identical\") */\n      tag_84\n      jumpi\n      mload(0x40)\n      0x08c379a000000000000000000000000000000000000000000000000000000000\n      dup2\n      mstore\n      0x04\n      add\n      tag_85\n      swap1\n      tag_86\n      jump\t// in\n    tag_85:\n      mload(0x40)\n      dup1\n      swap2\n      sub\n      swap1\n      revert\n    tag_84:\n        /* \"contracts/Escrow.sol\":733:740  100 wei */\n      0x64\n        /* \"contracts/Escrow.sol\":721:730  msg.value */\n      callvalue\n        /* \"contracts/Escrow.sol\":721:740  msg.value > 100 wei */\n      gt\n        /* \"contracts/Escrow.sol\":713:765  require(msg.value > 100 wei, \"Insufficient balance\") */\n      tag_87\n      jumpi\n      mload(0x40)\n      0x08c379a000000000000000000000000000000000000000000000000000000000\n      dup2\n      mstore\n      0x04\n      add\n      tag_88\n      swap1\n      tag_89\n      jump\t// in\n    tag_88:\n      mload(0x40)\n      dup1\n      swap2\n      sub\n      swap1\n      revert\n    tag_87:\n        /* \"contracts/Escrow.sol\":784:790  _buyer */\n      dup3\n        /* \"contracts/Escrow.sol\":776:781  Buyer */\n      0x00\n      dup1\n        /* \"contracts/Escrow.sol\":776:790  Buyer = _buyer */\n      0x0100\n      exp\n      dup2\n      sload\n      dup2\n      0xffffffffffffffffffffffffffffffffffffffff\n      mul\n      not\n      and\n      swap1\n      dup4\n      0xffffffffffffffffffffffffffffffffffffffff\n      and\n      mul\n      or\n      swap1\n      sstore\n      pop\n        /* \"contracts/Escrow.sol\":810:817  _seller */\n      dup2\n        /* \"contracts/Escrow.sol\":801:807  Seller */\n      0x01\n      0x00\n        /* \"contracts/Escrow.sol\":801:817  Seller = _seller */\n      0x0100\n      exp\n      dup2\n      sload\n      dup2\n      0xffffffffffffffffffffffffffffffffffffffff\n      mul\n      not\n      and\n      swap1\n      dup4\n      0xffffffffffffffffffffffffffffffffffffffff\n      and\n      mul\n      or\n      swap1\n      sstore\n      pop\n        /* \"contracts/Escrow.sol\":838:846  _arbiter */\n      dup1\n        /* \"contracts/Escrow.sol\":828:835  arbiter */\n      0x02\n      0x00\n        /* \"contracts/Escrow.sol\":828:846  arbiter = _arbiter */\n      0x0100\n      exp\n      dup2\n      sload\n      dup2\n      0xffffffffffffffffffffffffffffffffffffffff\n      mul\n      not\n      and\n      swap1\n      dup4\n      0xffffffffffffffffffffffffffffffffffffffff\n      and\n      mul\n      or\n      swap1\n      sstore\n      pop\n        /* \"contracts/Escrow.sol\":866:875  msg.value */\n      callvalue\n        /* \"contracts/Escrow.sol\":857:863  amount */\n      0x03\n        /* \"contracts/Escrow.sol\":857:875  amount = msg.value */\n      dup2\n      swap1\n      sstore\n      pop\n        /* \"contracts/Escrow.sol\":367:883  function initiaize(... */\n      pop\n      pop\n      pop\n      jump\t// out\n        /* \"contracts/Escrow.sol\":121:150  address payable public Seller */\n    tag_26:\n      0x01\n      0x00\n      swap1\n      sload\n      swap1\n      0x0100\n      exp\n      swap1\n      div\n      0xffffffffffffffffffffffffffffffffffffffff\n      and\n      dup2\n      jump\t// out\n        /* \"contracts/Escrow.sol\":1270:1324  function getBalance() public view returns (uint256) {} */\n    tag_31:\n        /* \"contracts/Escrow.sol\":1313:1320  uint256 */\n      0x00\n        /* \"contracts/Escrow.sol\":1270:1324  function getBalance() public view returns (uint256) {} */\n      swap1\n      jump\t// out\n        /* \"contracts/Escrow.sol\":246:272  bool public sellerApproved */\n    tag_36:\n      0x04\n      0x01\n      swap1\n      sload\n      swap1\n      0x0100\n      exp\n      swap1\n      div\n      0xff\n      and\n      dup2\n      jump\t// out\n        /* \"contracts/Escrow.sol\":1103:1139  function approveBySeller() public {} */\n    tag_41:\n      jump\t// out\n        /* \"contracts/Escrow.sol\":1190:1226  function releaseToSeller() public {} */\n    tag_44:\n      jump\t// out\n        /* \"contracts/Escrow.sol\":279:299  address public owner */\n    tag_47:\n      0x04\n      0x02\n      swap1\n      sload\n      swap1\n      0x0100\n      exp\n      swap1\n      div\n      0xffffffffffffffffffffffffffffffffffffffff\n      and\n      dup2\n      jump\t// out\n        /* \"contracts/Escrow.sol\":214:239  bool public buyerApproved */\n    tag_52:\n      0x04\n      0x00\n      swap1\n      sload\n      swap1\n      0x0100\n      exp\n      swap1\n      div\n      0xff\n      and\n      dup2\n      jump\t// out\n        /* \"contracts/Escrow.sol\":86:114  address payable public Buyer */\n    tag_56:\n      0x00\n      dup1\n      sload\n      swap1\n      0x0100\n      exp\n      swap1\n      div\n      0xffffffffffffffffffffffffffffffffffffffff\n      and\n      dup2\n      jump\t// out\n        /* \"contracts/Escrow.sol\":186:207  uint256 public amount */\n    tag_60:\n      sload(0x03)\n      dup2\n      jump\t// out\n        /* \"contracts/Escrow.sol\":1332:1358  function reset() public {} */\n    tag_64:\n      jump\t// out\n        /* \"contracts/Escrow.sol\":1234:1262  function dispute() public {} */\n    tag_67:\n      jump\t// out\n        /* \"contracts/Escrow.sol\":1147:1182  function releaseToBuyer() public {} */\n    tag_70:\n      jump\t// out\n        /* \"contracts/Escrow.sol\":157:179  address public arbiter */\n    tag_73:\n      0x02\n      0x00\n      swap1\n      sload\n      swap1\n      0x0100\n      exp\n      swap1\n      div\n      0xffffffffffffffffffffffffffffffffffffffff\n      and\n      dup2\n      jump\t// out\n        /* \"contracts/Escrow.sol\":891:1095  function approveByBuyer() public {... */\n    tag_77:\n        /* \"contracts/Escrow.sol\":957:962  Buyer */\n      0x00\n      dup1\n      sload\n      swap1\n      0x0100\n      exp\n      swap1\n      div\n      0xffffffffffffffffffffffffffffffffffffffff\n      and\n        /* \"contracts/Escrow.sol\":943:962  msg.sender == Buyer */\n      0xffffffffffffffffffffffffffffffffffffffff\n      and\n        /* \"contracts/Escrow.sol\":943:953  msg.sender */\n      caller\n        /* \"contracts/Escrow.sol\":943:962  msg.sender == Buyer */\n      0xffffffffffffffffffffffffffffffffffffffff\n      and\n      eq\n        /* \"contracts/Escrow.sol\":935:989  require(msg.sender == Buyer, \"Only buyer can approve\") */\n      tag_97\n      jumpi\n      mload(0x40)\n      0x08c379a000000000000000000000000000000000000000000000000000000000\n      dup2\n      mstore\n      0x04\n      add\n      tag_98\n      swap1\n      tag_99\n      jump\t// in\n    tag_98:\n      mload(0x40)\n      dup1\n      swap2\n      sub\n      swap1\n      revert\n    tag_97:\n        /* \"contracts/Escrow.sol\":1025:1029  true */\n      0x01\n        /* \"contracts/Escrow.sol\":1008:1029  buyerApproved != true */\n      iszero\n      iszero\n        /* \"contracts/Escrow.sol\":1008:1021  buyerApproved */\n      0x04\n      0x00\n      swap1\n      sload\n      swap1\n      0x0100\n      exp\n      swap1\n      div\n      0xff\n      and\n        /* \"contracts/Escrow.sol\":1008:1029  buyerApproved != true */\n      iszero\n      iszero\n      sub\n        /* \"contracts/Escrow.sol\":1000:1056  require(buyerApproved != true, \"Buyer already approved\") */\n      tag_100\n      jumpi\n      mload(0x40)\n      0x08c379a000000000000000000000000000000000000000000000000000000000\n      dup2\n      mstore\n      0x04\n      add\n      tag_101\n      swap1\n      tag_102\n      jump\t// in\n    tag_101:\n      mload(0x40)\n      dup1\n      swap2\n      sub\n      swap1\n      revert\n    tag_100:\n        /* \"contracts/Escrow.sol\":1083:1087  true */\n      0x01\n        /* \"contracts/Escrow.sol\":1067:1080  buyerApproved */\n      0x04\n      0x00\n        /* \"contracts/Escrow.sol\":1067:1087  buyerApproved = true */\n      0x0100\n      exp\n      dup2\n      sload\n      dup2\n      0xff\n      mul\n      not\n      and\n      swap1\n      dup4\n      iszero\n      iszero\n      mul\n      or\n      swap1\n      sstore\n      pop\n        /* \"contracts/Escrow.sol\":891:1095  function approveByBuyer() public {... */\n      jump\t// out\n        /* \"#utility.yul\":88:205   */\n    tag_104:\n        /* \"#utility.yul\":197:198   */\n      0x00\n        /* \"#utility.yul\":194:195   */\n      dup1\n        /* \"#utility.yul\":187:199   */\n      revert\n        /* \"#utility.yul\":334:460   */\n    tag_106:\n        /* \"#utility.yul\":371:378   */\n      0x00\n        /* \"#utility.yul\":411:453   */\n      0xffffffffffffffffffffffffffffffffffffffff\n        /* \"#utility.yul\":404:409   */\n      dup3\n        /* \"#utility.yul\":400:454   */\n      and\n        /* \"#utility.yul\":389:454   */\n      swap1\n      pop\n        /* \"#utility.yul\":334:460   */\n      swap2\n      swap1\n      pop\n      jump\t// out\n        /* \"#utility.yul\":466:570   */\n    tag_107:\n        /* \"#utility.yul\":511:518   */\n      0x00\n        /* \"#utility.yul\":540:564   */\n      tag_136\n        /* \"#utility.yul\":558:563   */\n      dup3\n        /* \"#utility.yul\":540:564   */\n      tag_106\n      jump\t// in\n    tag_136:\n        /* \"#utility.yul\":529:564   */\n      swap1\n      pop\n        /* \"#utility.yul\":466:570   */\n      swap2\n      swap1\n      pop\n      jump\t// out\n        /* \"#utility.yul\":576:714   */\n    tag_108:\n        /* \"#utility.yul\":657:689   */\n      tag_138\n        /* \"#utility.yul\":683:688   */\n      dup2\n        /* \"#utility.yul\":657:689   */\n      tag_107\n      jump\t// in\n    tag_138:\n        /* \"#utility.yul\":650:655   */\n      dup2\n        /* \"#utility.yul\":647:690   */\n      eq\n        /* \"#utility.yul\":637:708   */\n      tag_139\n      jumpi\n        /* \"#utility.yul\":704:705   */\n      0x00\n        /* \"#utility.yul\":701:702   */\n      dup1\n        /* \"#utility.yul\":694:706   */\n      revert\n        /* \"#utility.yul\":637:708   */\n    tag_139:\n        /* \"#utility.yul\":576:714   */\n      pop\n      jump\t// out\n        /* \"#utility.yul\":720:875   */\n    tag_109:\n        /* \"#utility.yul\":774:779   */\n      0x00\n        /* \"#utility.yul\":812:818   */\n      dup2\n        /* \"#utility.yul\":799:819   */\n      calldataload\n        /* \"#utility.yul\":790:819   */\n      swap1\n      pop\n        /* \"#utility.yul\":828:869   */\n      tag_141\n        /* \"#utility.yul\":863:868   */\n      dup2\n        /* \"#utility.yul\":828:869   */\n      tag_108\n      jump\t// in\n    tag_141:\n        /* \"#utility.yul\":720:875   */\n      swap3\n      swap2\n      pop\n      pop\n      jump\t// out\n        /* \"#utility.yul\":881:977   */\n    tag_110:\n        /* \"#utility.yul\":918:925   */\n      0x00\n        /* \"#utility.yul\":947:971   */\n      tag_143\n        /* \"#utility.yul\":965:970   */\n      dup3\n        /* \"#utility.yul\":947:971   */\n      tag_106\n      jump\t// in\n    tag_143:\n        /* \"#utility.yul\":936:971   */\n      swap1\n      pop\n        /* \"#utility.yul\":881:977   */\n      swap2\n      swap1\n      pop\n      jump\t// out\n        /* \"#utility.yul\":983:1105   */\n    tag_111:\n        /* \"#utility.yul\":1056:1080   */\n      tag_145\n        /* \"#utility.yul\":1074:1079   */\n      dup2\n        /* \"#utility.yul\":1056:1080   */\n      tag_110\n      jump\t// in\n    tag_145:\n        /* \"#utility.yul\":1049:1054   */\n      dup2\n        /* \"#utility.yul\":1046:1081   */\n      eq\n        /* \"#utility.yul\":1036:1099   */\n      tag_146\n      jumpi\n        /* \"#utility.yul\":1095:1096   */\n      0x00\n        /* \"#utility.yul\":1092:1093   */\n      dup1\n        /* \"#utility.yul\":1085:1097   */\n      revert\n        /* \"#utility.yul\":1036:1099   */\n    tag_146:\n        /* \"#utility.yul\":983:1105   */\n      pop\n      jump\t// out\n        /* \"#utility.yul\":1111:1250   */\n    tag_112:\n        /* \"#utility.yul\":1157:1162   */\n      0x00\n        /* \"#utility.yul\":1195:1201   */\n      dup2\n        /* \"#utility.yul\":1182:1202   */\n      calldataload\n        /* \"#utility.yul\":1173:1202   */\n      swap1\n      pop\n        /* \"#utility.yul\":1211:1244   */\n      tag_148\n        /* \"#utility.yul\":1238:1243   */\n      dup2\n        /* \"#utility.yul\":1211:1244   */\n      tag_111\n      jump\t// in\n    tag_148:\n        /* \"#utility.yul\":1111:1250   */\n      swap3\n      swap2\n      pop\n      pop\n      jump\t// out\n        /* \"#utility.yul\":1256:1907   */\n    tag_22:\n        /* \"#utility.yul\":1349:1355   */\n      0x00\n        /* \"#utility.yul\":1357:1363   */\n      dup1\n        /* \"#utility.yul\":1365:1371   */\n      0x00\n        /* \"#utility.yul\":1414:1416   */\n      0x60\n        /* \"#utility.yul\":1402:1411   */\n      dup5\n        /* \"#utility.yul\":1393:1400   */\n      dup7\n        /* \"#utility.yul\":1389:1412   */\n      sub\n        /* \"#utility.yul\":1385:1417   */\n      slt\n        /* \"#utility.yul\":1382:1501   */\n      iszero\n      tag_150\n      jumpi\n        /* \"#utility.yul\":1420:1499   */\n      tag_151\n      tag_104\n      jump\t// in\n    tag_151:\n        /* \"#utility.yul\":1382:1501   */\n    tag_150:\n        /* \"#utility.yul\":1540:1541   */\n      0x00\n        /* \"#utility.yul\":1565:1626   */\n      tag_152\n        /* \"#utility.yul\":1618:1625   */\n      dup7\n        /* \"#utility.yul\":1609:1615   */\n      dup3\n        /* \"#utility.yul\":1598:1607   */\n      dup8\n        /* \"#utility.yul\":1594:1616   */\n      add\n        /* \"#utility.yul\":1565:1626   */\n      tag_109\n      jump\t// in\n    tag_152:\n        /* \"#utility.yul\":1555:1626   */\n      swap4\n      pop\n        /* \"#utility.yul\":1511:1636   */\n      pop\n        /* \"#utility.yul\":1675:1677   */\n      0x20\n        /* \"#utility.yul\":1701:1762   */\n      tag_153\n        /* \"#utility.yul\":1754:1761   */\n      dup7\n        /* \"#utility.yul\":1745:1751   */\n      dup3\n        /* \"#utility.yul\":1734:1743   */\n      dup8\n        /* \"#utility.yul\":1730:1752   */\n      add\n        /* \"#utility.yul\":1701:1762   */\n      tag_109\n      jump\t// in\n    tag_153:\n        /* \"#utility.yul\":1691:1762   */\n      swap3\n      pop\n        /* \"#utility.yul\":1646:1772   */\n      pop\n        /* \"#utility.yul\":1811:1813   */\n      0x40\n        /* \"#utility.yul\":1837:1890   */\n      tag_154\n        /* \"#utility.yul\":1882:1889   */\n      dup7\n        /* \"#utility.yul\":1873:1879   */\n      dup3\n        /* \"#utility.yul\":1862:1871   */\n      dup8\n        /* \"#utility.yul\":1858:1880   */\n      add\n        /* \"#utility.yul\":1837:1890   */\n      tag_112\n      jump\t// in\n    tag_154:\n        /* \"#utility.yul\":1827:1890   */\n      swap2\n      pop\n        /* \"#utility.yul\":1782:1900   */\n      pop\n        /* \"#utility.yul\":1256:1907   */\n      swap3\n      pop\n      swap3\n      pop\n      swap3\n      jump\t// out\n        /* \"#utility.yul\":1913:2055   */\n    tag_113:\n        /* \"#utility.yul\":2016:2048   */\n      tag_156\n        /* \"#utility.yul\":2042:2047   */\n      dup2\n        /* \"#utility.yul\":2016:2048   */\n      tag_107\n      jump\t// in\n    tag_156:\n        /* \"#utility.yul\":2011:2014   */\n      dup3\n        /* \"#utility.yul\":2004:2049   */\n      mstore\n        /* \"#utility.yul\":1913:2055   */\n      pop\n      pop\n      jump\t// out\n        /* \"#utility.yul\":2061:2315   */\n    tag_28:\n        /* \"#utility.yul\":2170:2174   */\n      0x00\n        /* \"#utility.yul\":2208:2210   */\n      0x20\n        /* \"#utility.yul\":2197:2206   */\n      dup3\n        /* \"#utility.yul\":2193:2211   */\n      add\n        /* \"#utility.yul\":2185:2211   */\n      swap1\n      pop\n        /* \"#utility.yul\":2221:2308   */\n      tag_158\n        /* \"#utility.yul\":2305:2306   */\n      0x00\n        /* \"#utility.yul\":2294:2303   */\n      dup4\n        /* \"#utility.yul\":2290:2307   */\n      add\n        /* \"#utility.yul\":2281:2287   */\n      dup5\n        /* \"#utility.yul\":2221:2308   */\n      tag_113\n      jump\t// in\n    tag_158:\n        /* \"#utility.yul\":2061:2315   */\n      swap3\n      swap2\n      pop\n      pop\n      jump\t// out\n        /* \"#utility.yul\":2321:2398   */\n    tag_114:\n        /* \"#utility.yul\":2358:2365   */\n      0x00\n        /* \"#utility.yul\":2387:2392   */\n      dup2\n        /* \"#utility.yul\":2376:2392   */\n      swap1\n      pop\n        /* \"#utility.yul\":2321:2398   */\n      swap2\n      swap1\n      pop\n      jump\t// out\n        /* \"#utility.yul\":2404:2522   */\n    tag_115:\n        /* \"#utility.yul\":2491:2515   */\n      tag_161\n        /* \"#utility.yul\":2509:2514   */\n      dup2\n        /* \"#utility.yul\":2491:2515   */\n      tag_114\n      jump\t// in\n    tag_161:\n        /* \"#utility.yul\":2486:2489   */\n      dup3\n        /* \"#utility.yul\":2479:2516   */\n      mstore\n        /* \"#utility.yul\":2404:2522   */\n      pop\n      pop\n      jump\t// out\n        /* \"#utility.yul\":2528:2750   */\n    tag_33:\n        /* \"#utility.yul\":2621:2625   */\n      0x00\n        /* \"#utility.yul\":2659:2661   */\n      0x20\n        /* \"#utility.yul\":2648:2657   */\n      dup3\n        /* \"#utility.yul\":2644:2662   */\n      add\n        /* \"#utility.yul\":2636:2662   */\n      swap1\n      pop\n        /* \"#utility.yul\":2672:2743   */\n      tag_163\n        /* \"#utility.yul\":2740:2741   */\n      0x00\n        /* \"#utility.yul\":2729:2738   */\n      dup4\n        /* \"#utility.yul\":2725:2742   */\n      add\n        /* \"#utility.yul\":2716:2722   */\n      dup5\n        /* \"#utility.yul\":2672:2743   */\n      tag_115\n      jump\t// in\n    tag_163:\n        /* \"#utility.yul\":2528:2750   */\n      swap3\n      swap2\n      pop\n      pop\n      jump\t// out\n        /* \"#utility.yul\":2756:2846   */\n    tag_116:\n        /* \"#utility.yul\":2790:2797   */\n      0x00\n        /* \"#utility.yul\":2833:2838   */\n      dup2\n        /* \"#utility.yul\":2826:2839   */\n      iszero\n        /* \"#utility.yul\":2819:2840   */\n      iszero\n        /* \"#utility.yul\":2808:2840   */\n      swap1\n      pop\n        /* \"#utility.yul\":2756:2846   */\n      swap2\n      swap1\n      pop\n      jump\t// out\n        /* \"#utility.yul\":2852:2961   */\n    tag_117:\n        /* \"#utility.yul\":2933:2954   */\n      tag_166\n        /* \"#utility.yul\":2948:2953   */\n      dup2\n        /* \"#utility.yul\":2933:2954   */\n      tag_116\n      jump\t// in\n    tag_166:\n        /* \"#utility.yul\":2928:2931   */\n      dup3\n        /* \"#utility.yul\":2921:2955   */\n      mstore\n        /* \"#utility.yul\":2852:2961   */\n      pop\n      pop\n      jump\t// out\n        /* \"#utility.yul\":2967:3177   */\n    tag_38:\n        /* \"#utility.yul\":3054:3058   */\n      0x00\n        /* \"#utility.yul\":3092:3094   */\n      0x20\n        /* \"#utility.yul\":3081:3090   */\n      dup3\n        /* \"#utility.yul\":3077:3095   */\n      add\n        /* \"#utility.yul\":3069:3095   */\n      swap1\n      pop\n        /* \"#utility.yul\":3105:3170   */\n      tag_168\n        /* \"#utility.yul\":3167:3168   */\n      0x00\n        /* \"#utility.yul\":3156:3165   */\n      dup4\n        /* \"#utility.yul\":3152:3169   */\n      add\n        /* \"#utility.yul\":3143:3149   */\n      dup5\n        /* \"#utility.yul\":3105:3170   */\n      tag_117\n      jump\t// in\n    tag_168:\n        /* \"#utility.yul\":2967:3177   */\n      swap3\n      swap2\n      pop\n      pop\n      jump\t// out\n        /* \"#utility.yul\":3183:3301   */\n    tag_118:\n        /* \"#utility.yul\":3270:3294   */\n      tag_170\n        /* \"#utility.yul\":3288:3293   */\n      dup2\n        /* \"#utility.yul\":3270:3294   */\n      tag_110\n      jump\t// in\n    tag_170:\n        /* \"#utility.yul\":3265:3268   */\n      dup3\n        /* \"#utility.yul\":3258:3295   */\n      mstore\n        /* \"#utility.yul\":3183:3301   */\n      pop\n      pop\n      jump\t// out\n        /* \"#utility.yul\":3307:3529   */\n    tag_49:\n        /* \"#utility.yul\":3400:3404   */\n      0x00\n        /* \"#utility.yul\":3438:3440   */\n      0x20\n        /* \"#utility.yul\":3427:3436   */\n      dup3\n        /* \"#utility.yul\":3423:3441   */\n      add\n        /* \"#utility.yul\":3415:3441   */\n      swap1\n      pop\n        /* \"#utility.yul\":3451:3522   */\n      tag_172\n        /* \"#utility.yul\":3519:3520   */\n      0x00\n        /* \"#utility.yul\":3508:3517   */\n      dup4\n        /* \"#utility.yul\":3504:3521   */\n      add\n        /* \"#utility.yul\":3495:3501   */\n      dup5\n        /* \"#utility.yul\":3451:3522   */\n      tag_118\n      jump\t// in\n    tag_172:\n        /* \"#utility.yul\":3307:3529   */\n      swap3\n      swap2\n      pop\n      pop\n      jump\t// out\n        /* \"#utility.yul\":3535:3704   */\n    tag_119:\n        /* \"#utility.yul\":3619:3630   */\n      0x00\n        /* \"#utility.yul\":3653:3659   */\n      dup3\n        /* \"#utility.yul\":3648:3651   */\n      dup3\n        /* \"#utility.yul\":3641:3660   */\n      mstore\n        /* \"#utility.yul\":3693:3697   */\n      0x20\n        /* \"#utility.yul\":3688:3691   */\n      dup3\n        /* \"#utility.yul\":3684:3698   */\n      add\n        /* \"#utility.yul\":3669:3698   */\n      swap1\n      pop\n        /* \"#utility.yul\":3535:3704   */\n      swap3\n      swap2\n      pop\n      pop\n      jump\t// out\n        /* \"#utility.yul\":3710:3885   */\n    tag_120:\n        /* \"#utility.yul\":3850:3877   */\n      0x6f6e6c79206f776e65722063616e20696e697469616c697a6500000000000000\n        /* \"#utility.yul\":3846:3847   */\n      0x00\n        /* \"#utility.yul\":3838:3844   */\n      dup3\n        /* \"#utility.yul\":3834:3848   */\n      add\n        /* \"#utility.yul\":3827:3878   */\n      mstore\n        /* \"#utility.yul\":3710:3885   */\n      pop\n      jump\t// out\n        /* \"#utility.yul\":3891:4257   */\n    tag_121:\n        /* \"#utility.yul\":4033:4036   */\n      0x00\n        /* \"#utility.yul\":4054:4121   */\n      tag_176\n        /* \"#utility.yul\":4118:4120   */\n      0x19\n        /* \"#utility.yul\":4113:4116   */\n      dup4\n        /* \"#utility.yul\":4054:4121   */\n      tag_119\n      jump\t// in\n    tag_176:\n        /* \"#utility.yul\":4047:4121   */\n      swap2\n      pop\n        /* \"#utility.yul\":4130:4223   */\n      tag_177\n        /* \"#utility.yul\":4219:4222   */\n      dup3\n        /* \"#utility.yul\":4130:4223   */\n      tag_120\n      jump\t// in\n    tag_177:\n        /* \"#utility.yul\":4248:4250   */\n      0x20\n        /* \"#utility.yul\":4243:4246   */\n      dup3\n        /* \"#utility.yul\":4239:4251   */\n      add\n        /* \"#utility.yul\":4232:4251   */\n      swap1\n      pop\n        /* \"#utility.yul\":3891:4257   */\n      swap2\n      swap1\n      pop\n      jump\t// out\n        /* \"#utility.yul\":4263:4682   */\n    tag_81:\n        /* \"#utility.yul\":4429:4433   */\n      0x00\n        /* \"#utility.yul\":4467:4469   */\n      0x20\n        /* \"#utility.yul\":4456:4465   */\n      dup3\n        /* \"#utility.yul\":4452:4470   */\n      add\n        /* \"#utility.yul\":4444:4470   */\n      swap1\n      pop\n        /* \"#utility.yul\":4516:4525   */\n      dup2\n        /* \"#utility.yul\":4510:4514   */\n      dup2\n        /* \"#utility.yul\":4506:4526   */\n      sub\n        /* \"#utility.yul\":4502:4503   */\n      0x00\n        /* \"#utility.yul\":4491:4500   */\n      dup4\n        /* \"#utility.yul\":4487:4504   */\n      add\n        /* \"#utility.yul\":4480:4527   */\n      mstore\n        /* \"#utility.yul\":4544:4675   */\n      tag_179\n        /* \"#utility.yul\":4670:4674   */\n      dup2\n        /* \"#utility.yul\":4544:4675   */\n      tag_121\n      jump\t// in\n    tag_179:\n        /* \"#utility.yul\":4536:4675   */\n      swap1\n      pop\n        /* \"#utility.yul\":4263:4682   */\n      swap2\n      swap1\n      pop\n      jump\t// out\n        /* \"#utility.yul\":4688:4921   */\n    tag_122:\n        /* \"#utility.yul\":4828:4862   */\n      0x42757965722c2073656c6c657220616e6420617262697465722063616e206e6f\n        /* \"#utility.yul\":4824:4825   */\n      0x00\n        /* \"#utility.yul\":4816:4822   */\n      dup3\n        /* \"#utility.yul\":4812:4826   */\n      add\n        /* \"#utility.yul\":4805:4863   */\n      mstore\n        /* \"#utility.yul\":4897:4913   */\n      0x74206265206964656e746963616c000000000000000000000000000000000000\n        /* \"#utility.yul\":4892:4894   */\n      0x20\n        /* \"#utility.yul\":4884:4890   */\n      dup3\n        /* \"#utility.yul\":4880:4895   */\n      add\n        /* \"#utility.yul\":4873:4914   */\n      mstore\n        /* \"#utility.yul\":4688:4921   */\n      pop\n      jump\t// out\n        /* \"#utility.yul\":4927:5293   */\n    tag_123:\n        /* \"#utility.yul\":5069:5072   */\n      0x00\n        /* \"#utility.yul\":5090:5157   */\n      tag_182\n        /* \"#utility.yul\":5154:5156   */\n      0x2e\n        /* \"#utility.yul\":5149:5152   */\n      dup4\n        /* \"#utility.yul\":5090:5157   */\n      tag_119\n      jump\t// in\n    tag_182:\n        /* \"#utility.yul\":5083:5157   */\n      swap2\n      pop\n        /* \"#utility.yul\":5166:5259   */\n      tag_183\n        /* \"#utility.yul\":5255:5258   */\n      dup3\n        /* \"#utility.yul\":5166:5259   */\n      tag_122\n      jump\t// in\n    tag_183:\n        /* \"#utility.yul\":5284:5286   */\n      0x40\n        /* \"#utility.yul\":5279:5282   */\n      dup3\n        /* \"#utility.yul\":5275:5287   */\n      add\n        /* \"#utility.yul\":5268:5287   */\n      swap1\n      pop\n        /* \"#utility.yul\":4927:5293   */\n      swap2\n      swap1\n      pop\n      jump\t// out\n        /* \"#utility.yul\":5299:5718   */\n    tag_86:\n        /* \"#utility.yul\":5465:5469   */\n      0x00\n        /* \"#utility.yul\":5503:5505   */\n      0x20\n        /* \"#utility.yul\":5492:5501   */\n      dup3\n        /* \"#utility.yul\":5488:5506   */\n      add\n        /* \"#utility.yul\":5480:5506   */\n      swap1\n      pop\n        /* \"#utility.yul\":5552:5561   */\n      dup2\n        /* \"#utility.yul\":5546:5550   */\n      dup2\n        /* \"#utility.yul\":5542:5562   */\n      sub\n        /* \"#utility.yul\":5538:5539   */\n      0x00\n        /* \"#utility.yul\":5527:5536   */\n      dup4\n        /* \"#utility.yul\":5523:5540   */\n      add\n        /* \"#utility.yul\":5516:5563   */\n      mstore\n        /* \"#utility.yul\":5580:5711   */\n      tag_185\n        /* \"#utility.yul\":5706:5710   */\n      dup2\n        /* \"#utility.yul\":5580:5711   */\n      tag_123\n      jump\t// in\n    tag_185:\n        /* \"#utility.yul\":5572:5711   */\n      swap1\n      pop\n        /* \"#utility.yul\":5299:5718   */\n      swap2\n      swap1\n      pop\n      jump\t// out\n        /* \"#utility.yul\":5724:5894   */\n    tag_124:\n        /* \"#utility.yul\":5864:5886   */\n      0x496e73756666696369656e742062616c616e6365000000000000000000000000\n        /* \"#utility.yul\":5860:5861   */\n      0x00\n        /* \"#utility.yul\":5852:5858   */\n      dup3\n        /* \"#utility.yul\":5848:5862   */\n      add\n        /* \"#utility.yul\":5841:5887   */\n      mstore\n        /* \"#utility.yul\":5724:5894   */\n      pop\n      jump\t// out\n        /* \"#utility.yul\":5900:6266   */\n    tag_125:\n        /* \"#utility.yul\":6042:6045   */\n      0x00\n        /* \"#utility.yul\":6063:6130   */\n      tag_188\n        /* \"#utility.yul\":6127:6129   */\n      0x14\n        /* \"#utility.yul\":6122:6125   */\n      dup4\n        /* \"#utility.yul\":6063:6130   */\n      tag_119\n      jump\t// in\n    tag_188:\n        /* \"#utility.yul\":6056:6130   */\n      swap2\n      pop\n        /* \"#utility.yul\":6139:6232   */\n      tag_189\n        /* \"#utility.yul\":6228:6231   */\n      dup3\n        /* \"#utility.yul\":6139:6232   */\n      tag_124\n      jump\t// in\n    tag_189:\n        /* \"#utility.yul\":6257:6259   */\n      0x20\n        /* \"#utility.yul\":6252:6255   */\n      dup3\n        /* \"#utility.yul\":6248:6260   */\n      add\n        /* \"#utility.yul\":6241:6260   */\n      swap1\n      pop\n        /* \"#utility.yul\":5900:6266   */\n      swap2\n      swap1\n      pop\n      jump\t// out\n        /* \"#utility.yul\":6272:6691   */\n    tag_89:\n        /* \"#utility.yul\":6438:6442   */\n      0x00\n        /* \"#utility.yul\":6476:6478   */\n      0x20\n        /* \"#utility.yul\":6465:6474   */\n      dup3\n        /* \"#utility.yul\":6461:6479   */\n      add\n        /* \"#utility.yul\":6453:6479   */\n      swap1\n      pop\n        /* \"#utility.yul\":6525:6534   */\n      dup2\n        /* \"#utility.yul\":6519:6523   */\n      dup2\n        /* \"#utility.yul\":6515:6535   */\n      sub\n        /* \"#utility.yul\":6511:6512   */\n      0x00\n        /* \"#utility.yul\":6500:6509   */\n      dup4\n        /* \"#utility.yul\":6496:6513   */\n      add\n        /* \"#utility.yul\":6489:6536   */\n      mstore\n        /* \"#utility.yul\":6553:6684   */\n      tag_191\n        /* \"#utility.yul\":6679:6683   */\n      dup2\n        /* \"#utility.yul\":6553:6684   */\n      tag_125\n      jump\t// in\n    tag_191:\n        /* \"#utility.yul\":6545:6684   */\n      swap1\n      pop\n        /* \"#utility.yul\":6272:6691   */\n      swap2\n      swap1\n      pop\n      jump\t// out\n        /* \"#utility.yul\":6697:6869   */\n    tag_126:\n        /* \"#utility.yul\":6837:6861   */\n      0x4f6e6c792062757965722063616e20617070726f766500000000000000000000\n        /* \"#utility.yul\":6833:6834   */\n      0x00\n        /* \"#utility.yul\":6825:6831   */\n      dup3\n        /* \"#utility.yul\":6821:6835   */\n      add\n        /* \"#utility.yul\":6814:6862   */\n      mstore\n        /* \"#utility.yul\":6697:6869   */\n      pop\n      jump\t// out\n        /* \"#utility.yul\":6875:7241   */\n    tag_127:\n        /* \"#utility.yul\":7017:7020   */\n      0x00\n        /* \"#utility.yul\":7038:7105   */\n      tag_194\n        /* \"#utility.yul\":7102:7104   */\n      0x16\n        /* \"#utility.yul\":7097:7100   */\n      dup4\n        /* \"#utility.yul\":7038:7105   */\n      tag_119\n      jump\t// in\n    tag_194:\n        /* \"#utility.yul\":7031:7105   */\n      swap2\n      pop\n        /* \"#utility.yul\":7114:7207   */\n      tag_195\n        /* \"#utility.yul\":7203:7206   */\n      dup3\n        /* \"#utility.yul\":7114:7207   */\n      tag_126\n      jump\t// in\n    tag_195:\n        /* \"#utility.yul\":7232:7234   */\n      0x20\n        /* \"#utility.yul\":7227:7230   */\n      dup3\n        /* \"#utility.yul\":7223:7235   */\n      add\n        /* \"#utility.yul\":7216:7235   */\n      swap1\n      pop\n        /* \"#utility.yul\":6875:7241   */\n      swap2\n      swap1\n      pop\n      jump\t// out\n        /* \"#utility.yul\":7247:7666   */\n    tag_99:\n        /* \"#utility.yul\":7413:7417   */\n      0x00\n        /* \"#utility.yul\":7451:7453   */\n      0x20\n        /* \"#utility.yul\":7440:7449   */\n      dup3\n        /* \"#utility.yul\":7436:7454   */\n      add\n        /* \"#utility.yul\":7428:7454   */\n      swap1\n      pop\n        /* \"#utility.yul\":7500:7509   */\n      dup2\n        /* \"#utility.yul\":7494:7498   */\n      dup2\n        /* \"#utility.yul\":7490:7510   */\n      sub\n        /* \"#utility.yul\":7486:7487   */\n      0x00\n        /* \"#utility.yul\":7475:7484   */\n      dup4\n        /* \"#utility.yul\":7471:7488   */\n      add\n        /* \"#utility.yul\":7464:7511   */\n      mstore\n        /* \"#utility.yul\":7528:7659   */\n      tag_197\n        /* \"#utility.yul\":7654:7658   */\n      dup2\n        /* \"#utility.yul\":7528:7659   */\n      tag_127\n      jump\t// in\n    tag_197:\n        /* \"#utility.yul\":7520:7659   */\n      swap1\n      pop\n        /* \"#utility.yul\":7247:7666   */\n      swap2\n      swap1\n      pop\n      jump\t// out\n        /* \"#utility.yul\":7672:7844   */\n    tag_128:\n        /* \"#utility.yul\":7812:7836   */\n      0x427579657220616c726561647920617070726f76656400000000000000000000\n        /* \"#utility.yul\":7808:7809   */\n      0x00\n        /* \"#utility.yul\":7800:7806   */\n      dup3\n        /* \"#utility.yul\":7796:7810   */\n      add\n        /* \"#utility.yul\":7789:7837   */\n      mstore\n        /* \"#utility.yul\":7672:7844   */\n      pop\n      jump\t// out\n        /* \"#utility.yul\":7850:8216   */\n    tag_129:\n        /* \"#utility.yul\":7992:7995   */\n      0x00\n        /* \"#utility.yul\":8013:8080   */\n      tag_200\n        /* \"#utility.yul\":8077:8079   */\n      0x16\n        /* \"#utility.yul\":8072:8075   */\n      dup4\n        /* \"#utility.yul\":8013:8080   */\n      tag_119\n      jump\t// in\n    tag_200:\n        /* \"#utility.yul\":8006:8080   */\n      swap2\n      pop\n        /* \"#utility.yul\":8089:8182   */\n      tag_201\n        /* \"#utility.yul\":8178:8181   */\n      dup3\n        /* \"#utility.yul\":8089:8182   */\n      tag_128\n      jump\t// in\n    tag_201:\n        /* \"#utility.yul\":8207:8209   */\n      0x20\n        /* \"#utility.yul\":8202:8205   */\n      dup3\n        /* \"#utility.yul\":8198:8210   */\n      add\n        /* \"#utility.yul\":8191:8210   */\n      swap1\n      pop\n        /* \"#utility.yul\":7850:8216   */\n      swap2\n      swap1\n      pop\n      jump\t// out\n        /* \"#utility.yul\":8222:8641   */\n    tag_102:\n        /* \"#utility.yul\":8388:8392   */\n      0x00\n        /* \"#utility.yul\":8426:8428   */\n      0x20\n        /* \"#utility.yul\":8415:8424   */\n      dup3\n        /* \"#utility.yul\":8411:8429   */\n      add\n        /* \"#utility.yul\":8403:8429   */\n      swap1\n      pop\n        /* \"#utility.yul\":8475:8484   */\n      dup2\n        /* \"#utility.yul\":8469:8473   */\n      dup2\n        /* \"#utility.yul\":8465:8485   */\n      sub\n        /* \"#utility.yul\":8461:8462   */\n      0x00\n        /* \"#utility.yul\":8450:8459   */\n      dup4\n        /* \"#utility.yul\":8446:8463   */\n      add\n        /* \"#utility.yul\":8439:8486   */\n      mstore\n        /* \"#utility.yul\":8503:8634   */\n      tag_203\n        /* \"#utility.yul\":8629:8633   */\n      dup2\n        /* \"#utility.yul\":8503:8634   */\n      tag_129\n      jump\t// in\n    tag_203:\n        /* \"#utility.yul\":8495:8634   */\n      swap1\n      pop\n        /* \"#utility.yul\":8222:8641   */\n      swap2\n      swap1\n      pop\n      jump\t// out\n\n    auxdata: 0xa2646970667358221220fd297a104d78cfc143666d8395c4c6304a4d5b02af78271f938f29d88594492364736f6c63430008110033\n}\n",
				"bytecode": {
					"linkReferences": {},
					"object": "608060405234801561001057600080fd5b5033600460026101000a81548173ffffffffffffffffffffffffffffffffffffffff021916908373ffffffffffffffffffffffffffffffffffffffff160217905550610b78806100616000396000f3fe6080604052600436106100e85760003560e01c806399f5c3691161008a578063f240f7c311610059578063f240f7c31461027b578063fdc5bf2c14610292578063fe25e00a146102a9578063ff80a389146102d4576100e8565b806399f5c369146101e3578063a1c12e6b1461020e578063aa8c217c14610239578063d826f88f14610264576100e8565b8063220ef69f116100c6578063220ef69f1461015f5780636cc332ce1461018a578063892a0e42146101a15780638da5cb5b146101b8576100e8565b806302c3ae46146100ed57806307fd36871461010957806312065fe014610134575b600080fd5b610107600480360381019061010291906107de565b6102eb565b005b34801561011557600080fd5b5061011e61056b565b60405161012b9190610840565b60405180910390f35b34801561014057600080fd5b50610149610591565b6040516101569190610874565b60405180910390f35b34801561016b57600080fd5b50610174610596565b60405161018191906108aa565b60405180910390f35b34801561019657600080fd5b5061019f6105a9565b005b3480156101ad57600080fd5b506101b66105ab565b005b3480156101c457600080fd5b506101cd6105ad565b6040516101da91906108d4565b60405180910390f35b3480156101ef57600080fd5b506101f86105d3565b60405161020591906108aa565b60405180910390f35b34801561021a57600080fd5b506102236105e6565b6040516102309190610840565b60405180910390f35b34801561024557600080fd5b5061024e61060a565b60405161025b9190610874565b60405180910390f35b34801561027057600080fd5b50610279610610565b005b34801561028757600080fd5b50610290610612565b005b34801561029e57600080fd5b506102a7610614565b005b3480156102b557600080fd5b506102be610616565b6040516102cb91906108d4565b60405180910390f35b3480156102e057600080fd5b506102e961063c565b005b3373ffffffffffffffffffffffffffffffffffffffff16600460029054906101000a900473ffffffffffffffffffffffffffffffffffffffff1673ffffffffffffffffffffffffffffffffffffffff161461037b576040517f08c379a00000000000000000000000000000000000000000000000000000000081526004016103729061094c565b60405180910390fd5b8173ffffffffffffffffffffffffffffffffffffffff168373ffffffffffffffffffffffffffffffffffffffff16141580156103e357508073ffffffffffffffffffffffffffffffffffffffff168373ffffffffffffffffffffffffffffffffffffffff1614155b801561041b57508073ffffffffffffffffffffffffffffffffffffffff168273ffffffffffffffffffffffffffffffffffffffff1614155b61045a576040517f08c379a0000000000000000000000000000000000000000000000000000000008152600401610451906109de565b60405180910390fd5b6064341161049d576040517f08c379a000000000000000000000000000000000000000000000000000000000815260040161049490610a4a565b60405180910390fd5b826000806101000a81548173ffffffffffffffffffffffffffffffffffffffff021916908373ffffffffffffffffffffffffffffffffffffffff16021790555081600160006101000a81548173ffffffffffffffffffffffffffffffffffffffff021916908373ffffffffffffffffffffffffffffffffffffffff16021790555080600260006101000a81548173ffffffffffffffffffffffffffffffffffffffff021916908373ffffffffffffffffffffffffffffffffffffffff16021790555034600381905550505050565b600160009054906101000a900473ffffffffffffffffffffffffffffffffffffffff1681565b600090565b600460019054906101000a900460ff1681565b565b565b600460029054906101000a900473ffffffffffffffffffffffffffffffffffffffff1681565b600460009054906101000a900460ff1681565b60008054906101000a900473ffffffffffffffffffffffffffffffffffffffff1681565b60035481565b565b565b565b600260009054906101000a900473ffffffffffffffffffffffffffffffffffffffff1681565b60008054906101000a900473ffffffffffffffffffffffffffffffffffffffff1673ffffffffffffffffffffffffffffffffffffffff163373ffffffffffffffffffffffffffffffffffffffff16146106ca576040517f08c379a00000000000000000000000000000000000000000000000000000000081526004016106c190610ab6565b60405180910390fd5b60011515600460009054906101000a900460ff16151503610720576040517f08c379a000000000000000000000000000000000000000000000000000000000815260040161071790610b22565b60405180910390fd5b6001600460006101000a81548160ff021916908315150217905550565b600080fd5b600073ffffffffffffffffffffffffffffffffffffffff82169050919050565b600061076d82610742565b9050919050565b61077d81610762565b811461078857600080fd5b50565b60008135905061079a81610774565b92915050565b60006107ab82610742565b9050919050565b6107bb816107a0565b81146107c657600080fd5b50565b6000813590506107d8816107b2565b92915050565b6000806000606084860312156107f7576107f661073d565b5b60006108058682870161078b565b93505060206108168682870161078b565b9250506040610827868287016107c9565b9150509250925092565b61083a81610762565b82525050565b60006020820190506108556000830184610831565b92915050565b6000819050919050565b61086e8161085b565b82525050565b60006020820190506108896000830184610865565b92915050565b60008115159050919050565b6108a48161088f565b82525050565b60006020820190506108bf600083018461089b565b92915050565b6108ce816107a0565b82525050565b60006020820190506108e960008301846108c5565b92915050565b600082825260208201905092915050565b7f6f6e6c79206f776e65722063616e20696e697469616c697a6500000000000000600082015250565b60006109366019836108ef565b915061094182610900565b602082019050919050565b6000602082019050818103600083015261096581610929565b9050919050565b7f42757965722c2073656c6c657220616e6420617262697465722063616e206e6f60008201527f74206265206964656e746963616c000000000000000000000000000000000000602082015250565b60006109c8602e836108ef565b91506109d38261096c565b604082019050919050565b600060208201905081810360008301526109f7816109bb565b9050919050565b7f496e73756666696369656e742062616c616e6365000000000000000000000000600082015250565b6000610a346014836108ef565b9150610a3f826109fe565b602082019050919050565b60006020820190508181036000830152610a6381610a27565b9050919050565b7f4f6e6c792062757965722063616e20617070726f766500000000000000000000600082015250565b6000610aa06016836108ef565b9150610aab82610a6a565b602082019050919050565b60006020820190508181036000830152610acf81610a93565b9050919050565b7f427579657220616c726561647920617070726f76656400000000000000000000600082015250565b6000610b0c6016836108ef565b9150610b1782610ad6565b602082019050919050565b60006020820190508181036000830152610b3b81610aff565b905091905056fea2646970667358221220fd297a104d78cfc143666d8395c4c6304a4d5b02af78271f938f29d88594492364736f6c63430008110033",
					"opcodes": "PUSH1 0x80 PUSH1 0x40 MSTORE CALLVALUE DUP1 ISZERO PUSH2 0x10 JUMPI PUSH1 0x0 DUP1 REVERT JUMPDEST POP CALLER PUSH1 0x4 PUSH1 0x2 PUSH2 0x100 EXP DUP2 SLOAD DUP2 PUSH20 0xFFFFFFFFFFFFFFFFFFFFFFFFFFFFFFFFFFFFFFFF MUL NOT AND SWAP1 DUP4 PUSH20 0xFFFFFFFFFFFFFFFFFFFFFFFFFFFFFFFFFFFFFFFF AND MUL OR SWAP1 SSTORE POP PUSH2 0xB78 DUP1 PUSH2 0x61 PUSH1 0x0 CODECOPY PUSH1 0x0 RETURN INVALID PUSH1 0x80 PUSH1 0x40 MSTORE PUSH1 0x4 CALLDATASIZE LT PUSH2 0xE8 JUMPI PUSH1 0x0 CALLDATALOAD PUSH1 0xE0 SHR DUP1 PUSH4 0x99F5C369 GT PUSH2 0x8A JUMPI DUP1 PUSH4 0xF240F7C3 GT PUSH2 0x59 JUMPI DUP1 PUSH4 0xF240F7C3 EQ PUSH2 0x27B JUMPI DUP1 PUSH4 0xFDC5BF2C EQ PUSH2 0x292 JUMPI DUP1 PUSH4 0xFE25E00A EQ PUSH2 0x2A9 JUMPI DUP1 PUSH4 0xFF80A389 EQ PUSH2 0x2D4 JUMPI PUSH2 0xE8 JUMP JUMPDEST DUP1 PUSH4 0x99F5C369 EQ PUSH2 0x1E3 JUMPI DUP1 PUSH4 0xA1C12E6B EQ PUSH2 0x20E JUMPI DUP1 PUSH4 0xAA8C217C EQ PUSH2 0x239 JUMPI DUP1 PUSH4 0xD826F88F EQ PUSH2 0x264 JUMPI PUSH2 0xE8 JUMP JUMPDEST DUP1 PUSH4 0x220EF69F GT PUSH2 0xC6 JUMPI DUP1 PUSH4 0x220EF69F EQ PUSH2 0x15F JUMPI DUP1 PUSH4 0x6CC332CE EQ PUSH2 0x18A JUMPI DUP1 PUSH4 0x892A0E42 EQ PUSH2 0x1A1 JUMPI DUP1 PUSH4 0x8DA5CB5B EQ PUSH2 0x1B8 JUMPI PUSH2 0xE8 JUMP JUMPDEST DUP1 PUSH4 0x2C3AE46 EQ PUSH2 0xED JUMPI DUP1 PUSH4 0x7FD3687 EQ PUSH2 0x109 JUMPI DUP1 PUSH4 0x12065FE0 EQ PUSH2 0x134 JUMPI JUMPDEST PUSH1 0x0 DUP1 REVERT JUMPDEST PUSH2 0x107 PUSH1 0x4 DUP1 CALLDATASIZE SUB DUP2 ADD SWAP1 PUSH2 0x102 SWAP2 SWAP1 PUSH2 0x7DE JUMP JUMPDEST PUSH2 0x2EB JUMP JUMPDEST STOP JUMPDEST CALLVALUE DUP1 ISZERO PUSH2 0x115 JUMPI PUSH1 0x0 DUP1 REVERT JUMPDEST POP PUSH2 0x11E PUSH2 0x56B JUMP JUMPDEST PUSH1 0x40 MLOAD PUSH2 0x12B SWAP2 SWAP1 PUSH2 0x840 JUMP JUMPDEST PUSH1 0x40 MLOAD DUP1 SWAP2 SUB SWAP1 RETURN JUMPDEST CALLVALUE DUP1 ISZERO PUSH2 0x140 JUMPI PUSH1 0x0 DUP1 REVERT JUMPDEST POP PUSH2 0x149 PUSH2 0x591 JUMP JUMPDEST PUSH1 0x40 MLOAD PUSH2 0x156 SWAP2 SWAP1 PUSH2 0x874 JUMP JUMPDEST PUSH1 0x40 MLOAD DUP1 SWAP2 SUB SWAP1 RETURN JUMPDEST CALLVALUE DUP1 ISZERO PUSH2 0x16B JUMPI PUSH1 0x0 DUP1 REVERT JUMPDEST POP PUSH2 0x174 PUSH2 0x596 JUMP JUMPDEST PUSH1 0x40 MLOAD PUSH2 0x181 SWAP2 SWAP1 PUSH2 0x8AA JUMP JUMPDEST PUSH1 0x40 MLOAD DUP1 SWAP2 SUB SWAP1 RETURN JUMPDEST CALLVALUE DUP1 ISZERO PUSH2 0x196 JUMPI PUSH1 0x0 DUP1 REVERT JUMPDEST POP PUSH2 0x19F PUSH2 0x5A9 JUMP JUMPDEST STOP JUMPDEST CALLVALUE DUP1 ISZERO PUSH2 0x1AD JUMPI PUSH1 0x0 DUP1 REVERT JUMPDEST POP PUSH2 0x1B6 PUSH2 0x5AB JUMP JUMPDEST STOP JUMPDEST CALLVALUE DUP1 ISZERO PUSH2 0x1C4 JUMPI PUSH1 0x0 DUP1 REVERT JUMPDEST POP PUSH2 0x1CD PUSH2 0x5AD JUMP JUMPDEST PUSH1 0x40 MLOAD PUSH2 0x1DA SWAP2 SWAP1 PUSH2 0x8D4 JUMP JUMPDEST PUSH1 0x40 MLOAD DUP1 SWAP2 SUB SWAP1 RETURN JUMPDEST CALLVALUE DUP1 ISZERO PUSH2 0x1EF JUMPI PUSH1 0x0 DUP1 REVERT JUMPDEST POP PUSH2 0x1F8 PUSH2 0x5D3 JUMP JUMPDEST PUSH1 0x40 MLOAD PUSH2 0x205 SWAP2 SWAP1 PUSH2 0x8AA JUMP JUMPDEST PUSH1 0x40 MLOAD DUP1 SWAP2 SUB SWAP1 RETURN JUMPDEST CALLVALUE DUP1 ISZERO PUSH2 0x21A JUMPI PUSH1 0x0 DUP1 REVERT JUMPDEST POP PUSH2 0x223 PUSH2 0x5E6 JUMP JUMPDEST PUSH1 0x40 MLOAD PUSH2 0x230 SWAP2 SWAP1 PUSH2 0x840 JUMP JUMPDEST PUSH1 0x40 MLOAD DUP1 SWAP2 SUB SWAP1 RETURN JUMPDEST CALLVALUE DUP1 ISZERO PUSH2 0x245 JUMPI PUSH1 0x0 DUP1 REVERT JUMPDEST POP PUSH2 0x24E PUSH2 0x60A JUMP JUMPDEST PUSH1 0x40 MLOAD PUSH2 0x25B SWAP2 SWAP1 PUSH2 0x874 JUMP JUMPDEST PUSH1 0x40 MLOAD DUP1 SWAP2 SUB SWAP1 RETURN JUMPDEST CALLVALUE DUP1 ISZERO PUSH2 0x270 JUMPI PUSH1 0x0 DUP1 REVERT JUMPDEST POP PUSH2 0x279 PUSH2 0x610 JUMP JUMPDEST STOP JUMPDEST CALLVALUE DUP1 ISZERO PUSH2 0x287 JUMPI PUSH1 0x0 DUP1 REVERT JUMPDEST POP PUSH2 0x290 PUSH2 0x612 JUMP JUMPDEST STOP JUMPDEST CALLVALUE DUP1 ISZERO PUSH2 0x29E JUMPI PUSH1 0x0 DUP1 REVERT JUMPDEST POP PUSH2 0x2A7 PUSH2 0x614 JUMP JUMPDEST STOP JUMPDEST CALLVALUE DUP1 ISZERO PUSH2 0x2B5 JUMPI PUSH1 0x0 DUP1 REVERT JUMPDEST POP PUSH2 0x2BE PUSH2 0x616 JUMP JUMPDEST PUSH1 0x40 MLOAD PUSH2 0x2CB SWAP2 SWAP1 PUSH2 0x8D4 JUMP JUMPDEST PUSH1 0x40 MLOAD DUP1 SWAP2 SUB SWAP1 RETURN JUMPDEST CALLVALUE DUP1 ISZERO PUSH2 0x2E0 JUMPI PUSH1 0x0 DUP1 REVERT JUMPDEST POP PUSH2 0x2E9 PUSH2 0x63C JUMP JUMPDEST STOP JUMPDEST CALLER PUSH20 0xFFFFFFFFFFFFFFFFFFFFFFFFFFFFFFFFFFFFFFFF AND PUSH1 0x4 PUSH1 0x2 SWAP1 SLOAD SWAP1 PUSH2 0x100 EXP SWAP1 DIV PUSH20 0xFFFFFFFFFFFFFFFFFFFFFFFFFFFFFFFFFFFFFFFF AND PUSH20 0xFFFFFFFFFFFFFFFFFFFFFFFFFFFFFFFFFFFFFFFF AND EQ PUSH2 0x37B JUMPI PUSH1 0x40 MLOAD PUSH32 0x8C379A000000000000000000000000000000000000000000000000000000000 DUP2 MSTORE PUSH1 0x4 ADD PUSH2 0x372 SWAP1 PUSH2 0x94C JUMP JUMPDEST PUSH1 0x40 MLOAD DUP1 SWAP2 SUB SWAP1 REVERT JUMPDEST DUP2 PUSH20 0xFFFFFFFFFFFFFFFFFFFFFFFFFFFFFFFFFFFFFFFF AND DUP4 PUSH20 0xFFFFFFFFFFFFFFFFFFFFFFFFFFFFFFFFFFFFFFFF AND EQ ISZERO DUP1 ISZERO PUSH2 0x3E3 JUMPI POP DUP1 PUSH20 0xFFFFFFFFFFFFFFFFFFFFFFFFFFFFFFFFFFFFFFFF AND DUP4 PUSH20 0xFFFFFFFFFFFFFFFFFFFFFFFFFFFFFFFFFFFFFFFF AND EQ ISZERO JUMPDEST DUP1 ISZERO PUSH2 0x41B JUMPI POP DUP1 PUSH20 0xFFFFFFFFFFFFFFFFFFFFFFFFFFFFFFFFFFFFFFFF AND DUP3 PUSH20 0xFFFFFFFFFFFFFFFFFFFFFFFFFFFFFFFFFFFFFFFF AND EQ ISZERO JUMPDEST PUSH2 0x45A JUMPI PUSH1 0x40 MLOAD PUSH32 0x8C379A000000000000000000000000000000000000000000000000000000000 DUP2 MSTORE PUSH1 0x4 ADD PUSH2 0x451 SWAP1 PUSH2 0x9DE JUMP JUMPDEST PUSH1 0x40 MLOAD DUP1 SWAP2 SUB SWAP1 REVERT JUMPDEST PUSH1 0x64 CALLVALUE GT PUSH2 0x49D JUMPI PUSH1 0x40 MLOAD PUSH32 0x8C379A000000000000000000000000000000000000000000000000000000000 DUP2 MSTORE PUSH1 0x4 ADD PUSH2 0x494 SWAP1 PUSH2 0xA4A JUMP JUMPDEST PUSH1 0x40 MLOAD DUP1 SWAP2 SUB SWAP1 REVERT JUMPDEST DUP3 PUSH1 0x0 DUP1 PUSH2 0x100 EXP DUP2 SLOAD DUP2 PUSH20 0xFFFFFFFFFFFFFFFFFFFFFFFFFFFFFFFFFFFFFFFF MUL NOT AND SWAP1 DUP4 PUSH20 0xFFFFFFFFFFFFFFFFFFFFFFFFFFFFFFFFFFFFFFFF AND MUL OR SWAP1 SSTORE POP DUP2 PUSH1 0x1 PUSH1 0x0 PUSH2 0x100 EXP DUP2 SLOAD DUP2 PUSH20 0xFFFFFFFFFFFFFFFFFFFFFFFFFFFFFFFFFFFFFFFF MUL NOT AND SWAP1 DUP4 PUSH20 0xFFFFFFFFFFFFFFFFFFFFFFFFFFFFFFFFFFFFFFFF AND MUL OR SWAP1 SSTORE POP DUP1 PUSH1 0x2 PUSH1 0x0 PUSH2 0x100 EXP DUP2 SLOAD DUP2 PUSH20 0xFFFFFFFFFFFFFFFFFFFFFFFFFFFFFFFFFFFFFFFF MUL NOT AND SWAP1 DUP4 PUSH20 0xFFFFFFFFFFFFFFFFFFFFFFFFFFFFFFFFFFFFFFFF AND MUL OR SWAP1 SSTORE POP CALLVALUE PUSH1 0x3 DUP2 SWAP1 SSTORE POP POP POP POP JUMP JUMPDEST PUSH1 0x1 PUSH1 0x0 SWAP1 SLOAD SWAP1 PUSH2 0x100 EXP SWAP1 DIV PUSH20 0xFFFFFFFFFFFFFFFFFFFFFFFFFFFFFFFFFFFFFFFF AND DUP2 JUMP JUMPDEST PUSH1 0x0 SWAP1 JUMP JUMPDEST PUSH1 0x4 PUSH1 0x1 SWAP1 SLOAD SWAP1 PUSH2 0x100 EXP SWAP1 DIV PUSH1 0xFF AND DUP2 JUMP JUMPDEST JUMP JUMPDEST JUMP JUMPDEST PUSH1 0x4 PUSH1 0x2 SWAP1 SLOAD SWAP1 PUSH2 0x100 EXP SWAP1 DIV PUSH20 0xFFFFFFFFFFFFFFFFFFFFFFFFFFFFFFFFFFFFFFFF AND DUP2 JUMP JUMPDEST PUSH1 0x4 PUSH1 0x0 SWAP1 SLOAD SWAP1 PUSH2 0x100 EXP SWAP1 DIV PUSH1 0xFF AND DUP2 JUMP JUMPDEST PUSH1 0x0 DUP1 SLOAD SWAP1 PUSH2 0x100 EXP SWAP1 DIV PUSH20 0xFFFFFFFFFFFFFFFFFFFFFFFFFFFFFFFFFFFFFFFF AND DUP2 JUMP JUMPDEST PUSH1 0x3 SLOAD DUP2 JUMP JUMPDEST JUMP JUMPDEST JUMP JUMPDEST JUMP JUMPDEST PUSH1 0x2 PUSH1 0x0 SWAP1 SLOAD SWAP1 PUSH2 0x100 EXP SWAP1 DIV PUSH20 0xFFFFFFFFFFFFFFFFFFFFFFFFFFFFFFFFFFFFFFFF AND DUP2 JUMP JUMPDEST PUSH1 0x0 DUP1 SLOAD SWAP1 PUSH2 0x100 EXP SWAP1 DIV PUSH20 0xFFFFFFFFFFFFFFFFFFFFFFFFFFFFFFFFFFFFFFFF AND PUSH20 0xFFFFFFFFFFFFFFFFFFFFFFFFFFFFFFFFFFFFFFFF AND CALLER PUSH20 0xFFFFFFFFFFFFFFFFFFFFFFFFFFFFFFFFFFFFFFFF AND EQ PUSH2 0x6CA JUMPI PUSH1 0x40 MLOAD PUSH32 0x8C379A000000000000000000000000000000000000000000000000000000000 DUP2 MSTORE PUSH1 0x4 ADD PUSH2 0x6C1 SWAP1 PUSH2 0xAB6 JUMP JUMPDEST PUSH1 0x40 MLOAD DUP1 SWAP2 SUB SWAP1 REVERT JUMPDEST PUSH1 0x1 ISZERO ISZERO PUSH1 0x4 PUSH1 0x0 SWAP1 SLOAD SWAP1 PUSH2 0x100 EXP SWAP1 DIV PUSH1 0xFF AND ISZERO ISZERO SUB PUSH2 0x720 JUMPI PUSH1 0x40 MLOAD PUSH32 0x8C379A000000000000000000000000000000000000000000000000000000000 DUP2 MSTORE PUSH1 0x4 ADD PUSH2 0x717 SWAP1 PUSH2 0xB22 JUMP JUMPDEST PUSH1 0x40 MLOAD DUP1 SWAP2 SUB SWAP1 REVERT JUMPDEST PUSH1 0x1 PUSH1 0x4 PUSH1 0x0 PUSH2 0x100 EXP DUP2 SLOAD DUP2 PUSH1 0xFF MUL NOT AND SWAP1 DUP4 ISZERO ISZERO MUL OR SWAP1 SSTORE POP JUMP JUMPDEST PUSH1 0x0 DUP1 REVERT JUMPDEST PUSH1 0x0 PUSH20 0xFFFFFFFFFFFFFFFFFFFFFFFFFFFFFFFFFFFFFFFF DUP3 AND SWAP1 POP SWAP2 SWAP1 POP JUMP JUMPDEST PUSH1 0x0 PUSH2 0x76D DUP3 PUSH2 0x742 JUMP JUMPDEST SWAP1 POP SWAP2 SWAP1 POP JUMP JUMPDEST PUSH2 0x77D DUP2 PUSH2 0x762 JUMP JUMPDEST DUP2 EQ PUSH2 0x788 JUMPI PUSH1 0x0 DUP1 REVERT JUMPDEST POP JUMP JUMPDEST PUSH1 0x0 DUP2 CALLDATALOAD SWAP1 POP PUSH2 0x79A DUP2 PUSH2 0x774 JUMP JUMPDEST SWAP3 SWAP2 POP POP JUMP JUMPDEST PUSH1 0x0 PUSH2 0x7AB DUP3 PUSH2 0x742 JUMP JUMPDEST SWAP1 POP SWAP2 SWAP1 POP JUMP JUMPDEST PUSH2 0x7BB DUP2 PUSH2 0x7A0 JUMP JUMPDEST DUP2 EQ PUSH2 0x7C6 JUMPI PUSH1 0x0 DUP1 REVERT JUMPDEST POP JUMP JUMPDEST PUSH1 0x0 DUP2 CALLDATALOAD SWAP1 POP PUSH2 0x7D8 DUP2 PUSH2 0x7B2 JUMP JUMPDEST SWAP3 SWAP2 POP POP JUMP JUMPDEST PUSH1 0x0 DUP1 PUSH1 0x0 PUSH1 0x60 DUP5 DUP7 SUB SLT ISZERO PUSH2 0x7F7 JUMPI PUSH2 0x7F6 PUSH2 0x73D JUMP JUMPDEST JUMPDEST PUSH1 0x0 PUSH2 0x805 DUP7 DUP3 DUP8 ADD PUSH2 0x78B JUMP JUMPDEST SWAP4 POP POP PUSH1 0x20 PUSH2 0x816 DUP7 DUP3 DUP8 ADD PUSH2 0x78B JUMP JUMPDEST SWAP3 POP POP PUSH1 0x40 PUSH2 0x827 DUP7 DUP3 DUP8 ADD PUSH2 0x7C9 JUMP JUMPDEST SWAP2 POP POP SWAP3 POP SWAP3 POP SWAP3 JUMP JUMPDEST PUSH2 0x83A DUP2 PUSH2 0x762 JUMP JUMPDEST DUP3 MSTORE POP POP JUMP JUMPDEST PUSH1 0x0 PUSH1 0x20 DUP3 ADD SWAP1 POP PUSH2 0x855 PUSH1 0x0 DUP4 ADD DUP5 PUSH2 0x831 JUMP JUMPDEST SWAP3 SWAP2 POP POP JUMP JUMPDEST PUSH1 0x0 DUP2 SWAP1 POP SWAP2 SWAP1 POP JUMP JUMPDEST PUSH2 0x86E DUP2 PUSH2 0x85B JUMP JUMPDEST DUP3 MSTORE POP POP JUMP JUMPDEST PUSH1 0x0 PUSH1 0x20 DUP3 ADD SWAP1 POP PUSH2 0x889 PUSH1 0x0 DUP4 ADD DUP5 PUSH2 0x865 JUMP JUMPDEST SWAP3 SWAP2 POP POP JUMP JUMPDEST PUSH1 0x0 DUP2 ISZERO ISZERO SWAP1 POP SWAP2 SWAP1 POP JUMP JUMPDEST PUSH2 0x8A4 DUP2 PUSH2 0x88F JUMP JUMPDEST DUP3 MSTORE POP POP JUMP JUMPDEST PUSH1 0x0 PUSH1 0x20 DUP3 ADD SWAP1 POP PUSH2 0x8BF PUSH1 0x0 DUP4 ADD DUP5 PUSH2 0x89B JUMP JUMPDEST SWAP3 SWAP2 POP POP JUMP JUMPDEST PUSH2 0x8CE DUP2 PUSH2 0x7A0 JUMP JUMPDEST DUP3 MSTORE POP POP JUMP JUMPDEST PUSH1 0x0 PUSH1 0x20 DUP3 ADD SWAP1 POP PUSH2 0x8E9 PUSH1 0x0 DUP4 ADD DUP5 PUSH2 0x8C5 JUMP JUMPDEST SWAP3 SWAP2 POP POP JUMP JUMPDEST PUSH1 0x0 DUP3 DUP3 MSTORE PUSH1 0x20 DUP3 ADD SWAP1 POP SWAP3 SWAP2 POP POP JUMP JUMPDEST PUSH32 0x6F6E6C79206F776E65722063616E20696E697469616C697A6500000000000000 PUSH1 0x0 DUP3 ADD MSTORE POP JUMP JUMPDEST PUSH1 0x0 PUSH2 0x936 PUSH1 0x19 DUP4 PUSH2 0x8EF JUMP JUMPDEST SWAP2 POP PUSH2 0x941 DUP3 PUSH2 0x900 JUMP JUMPDEST PUSH1 0x20 DUP3 ADD SWAP1 POP SWAP2 SWAP1 POP JUMP JUMPDEST PUSH1 0x0 PUSH1 0x20 DUP3 ADD SWAP1 POP DUP2 DUP2 SUB PUSH1 0x0 DUP4 ADD MSTORE PUSH2 0x965 DUP2 PUSH2 0x929 JUMP JUMPDEST SWAP1 POP SWAP2 SWAP1 POP JUMP JUMPDEST PUSH32 0x42757965722C2073656C6C657220616E6420617262697465722063616E206E6F PUSH1 0x0 DUP3 ADD MSTORE PUSH32 0x74206265206964656E746963616C000000000000000000000000000000000000 PUSH1 0x20 DUP3 ADD MSTORE POP JUMP JUMPDEST PUSH1 0x0 PUSH2 0x9C8 PUSH1 0x2E DUP4 PUSH2 0x8EF JUMP JUMPDEST SWAP2 POP PUSH2 0x9D3 DUP3 PUSH2 0x96C JUMP JUMPDEST PUSH1 0x40 DUP3 ADD SWAP1 POP SWAP2 SWAP1 POP JUMP JUMPDEST PUSH1 0x0 PUSH1 0x20 DUP3 ADD SWAP1 POP DUP2 DUP2 SUB PUSH1 0x0 DUP4 ADD MSTORE PUSH2 0x9F7 DUP2 PUSH2 0x9BB JUMP JUMPDEST SWAP1 POP SWAP2 SWAP1 POP JUMP JUMPDEST PUSH32 0x496E73756666696369656E742062616C616E6365000000000000000000000000 PUSH1 0x0 DUP3 ADD MSTORE POP JUMP JUMPDEST PUSH1 0x0 PUSH2 0xA34 PUSH1 0x14 DUP4 PUSH2 0x8EF JUMP JUMPDEST SWAP2 POP PUSH2 0xA3F DUP3 PUSH2 0x9FE JUMP JUMPDEST PUSH1 0x20 DUP3 ADD SWAP1 POP SWAP2 SWAP1 POP JUMP JUMPDEST PUSH1 0x0 PUSH1 0x20 DUP3 ADD SWAP1 POP DUP2 DUP2 SUB PUSH1 0x0 DUP4 ADD MSTORE PUSH2 0xA63 DUP2 PUSH2 0xA27 JUMP JUMPDEST SWAP1 POP SWAP2 SWAP1 POP JUMP JUMPDEST PUSH32 0x4F6E6C792062757965722063616E20617070726F766500000000000000000000 PUSH1 0x0 DUP3 ADD MSTORE POP JUMP JUMPDEST PUSH1 0x0 PUSH2 0xAA0 PUSH1 0x16 DUP4 PUSH2 0x8EF JUMP JUMPDEST SWAP2 POP PUSH2 0xAAB DUP3 PUSH2 0xA6A JUMP JUMPDEST PUSH1 0x20 DUP3 ADD SWAP1 POP SWAP2 SWAP1 POP JUMP JUMPDEST PUSH1 0x0 PUSH1 0x20 DUP3 ADD SWAP1 POP DUP2 DUP2 SUB PUSH1 0x0 DUP4 ADD MSTORE PUSH2 0xACF DUP2 PUSH2 0xA93 JUMP JUMPDEST SWAP1 POP SWAP2 SWAP1 POP JUMP JUMPDEST PUSH32 0x427579657220616C726561647920617070726F76656400000000000000000000 PUSH1 0x0 DUP3 ADD MSTORE POP JUMP JUMPDEST PUSH1 0x0 PUSH2 0xB0C PUSH1 0x16 DUP4 PUSH2 0x8EF JUMP JUMPDEST SWAP2 POP PUSH2 0xB17 DUP3 PUSH2 0xAD6 JUMP JUMPDEST PUSH1 0x20 DUP3 ADD SWAP1 POP SWAP2 SWAP1 POP JUMP JUMPDEST PUSH1 0x0 PUSH1 0x20 DUP3 ADD SWAP1 POP DUP2 DUP2 SUB PUSH1 0x0 DUP4 ADD MSTORE PUSH2 0xB3B DUP2 PUSH2 0xAFF JUMP JUMPDEST SWAP1 POP SWAP2 SWAP1 POP JUMP INVALID LOG2 PUSH5 0x6970667358 0x22 SLT KECCAK256 REVERT 0x29 PUSH27 0x104D78CFC143666D8395C4C6304A4D5B02AF78271F938F29D88594 0x49 0x23 PUSH5 0x736F6C6343 STOP ADDMOD GT STOP CALLER "
				},
				"gasEstimates": {
					"creation": {
						"codeDepositCost": "587200",
						"executionCost": "24935",
						"totalCost": "612135"
					},
					"external": {
						"Buyer()": "2556",
						"Seller()": "2560",
						"amount()": "2496",
						"approveByBuyer()": "28837",
						"approveBySeller()": "189",
						"arbiter()": "2580",
						"buyerApproved()": "2494",
						"dispute()": "166",
						"getBalance()": "397",
						"initiaize(address,address,address)": "infinite",
						"owner()": "2653",
						"releaseToBuyer()": "188",
						"releaseToSeller()": "211",
						"reset()": "233",
						"sellerApproved()": "2544"
					}
				},
				"methodIdentifiers": {
					"Buyer()": "a1c12e6b",
					"Seller()": "07fd3687",
					"amount()": "aa8c217c",
					"approveByBuyer()": "ff80a389",
					"approveBySeller()": "6cc332ce",
					"arbiter()": "fe25e00a",
					"buyerApproved()": "99f5c369",
					"dispute()": "f240f7c3",
					"getBalance()": "12065fe0",
					"initiaize(address,address,address)": "02c3ae46",
					"owner()": "8da5cb5b",
					"releaseToBuyer()": "fdc5bf2c",
					"releaseToSeller()": "892a0e42",
					"reset()": "d826f88f",
					"sellerApproved()": "220ef69f"
				}
			},
			"storageLayout": {
				"storage": [
					{
						"astId": 3,
						"contract": "contracts/Escrow.sol:Escrow",
						"label": "Buyer",
						"offset": 0,
						"slot": "0",
						"type": "t_address_payable"
					},
					{
						"astId": 5,
						"contract": "contracts/Escrow.sol:Escrow",
						"label": "Seller",
						"offset": 0,
						"slot": "1",
						"type": "t_address_payable"
					},
					{
						"astId": 7,
						"contract": "contracts/Escrow.sol:Escrow",
						"label": "arbiter",
						"offset": 0,
						"slot": "2",
						"type": "t_address"
					},
					{
						"astId": 9,
						"contract": "contracts/Escrow.sol:Escrow",
						"label": "amount",
						"offset": 0,
						"slot": "3",
						"type": "t_uint256"
					},
					{
						"astId": 11,
						"contract": "contracts/Escrow.sol:Escrow",
						"label": "buyerApproved",
						"offset": 0,
						"slot": "4",
						"type": "t_bool"
					},
					{
						"astId": 13,
						"contract": "contracts/Escrow.sol:Escrow",
						"label": "sellerApproved",
						"offset": 1,
						"slot": "4",
						"type": "t_bool"
					},
					{
						"astId": 15,
						"contract": "contracts/Escrow.sol:Escrow",
						"label": "owner",
						"offset": 2,
						"slot": "4",
						"type": "t_address"
					}
				],
				"types": {
					"t_address": {
						"encoding": "inplace",
						"label": "address",
						"numberOfBytes": "20"
					},
					"t_address_payable": {
						"encoding": "inplace",
						"label": "address payable",
						"numberOfBytes": "20"
					},
					"t_bool": {
						"encoding": "inplace",
						"label": "bool",
						"numberOfBytes": "1"
					},
					"t_uint256": {
						"encoding": "inplace",
						"label": "uint256",
						"numberOfBytes": "32"
					}
				}
			},
			"userdoc": {
				"kind": "user",
				"methods": {},
				"version": 1
			}
		}
	}
}